:03000000020F8765
:0C0F8700787FE4F6D8FD758120020B6134
:100CA700454E5445522050415353574F52443A20D2
:100CB70000534554204E45572054454D503A200087
:100CC70054454D5020555044415445442120005728
:100CD700524F4E472050415353574F52440054529E
:100CE7005920414741494E20212100332054524980
:100CF700414C53204F564552005741495420464FC7
:100D070052203330205345430043555252454E54E9
:0A0D17002054454D503A20004300DF
:03000300020A11DD
:100A1100C0E0C0F0C083C082C0D075D000C000C0AB
:0D0A210001C002C003C004C005C006C0072C
:100A2E00751A007B067D507FA0120E37120F1C7FA9
:100A3E0080120F307BFF7A0C79A7120E96120C0ED5
:100A4E008F177D507FA0120DF28F18AF17120F5413
:100A5E007F647E00120E677F01120F307F647E006E
:100A6E00120E67E517651870497F80120F307BFFF5
:100A7E007A0C79B8120E967FC0120F30120C0E8FB0
:100A8E0019120F54AB197D807FA0120E37751A0004
:100A9E007F647E00120E677F01120F307F80120F6F
:100AAE00307BFF7A0C79C7120E967FC0120F300280
:100ABE000B46C3E51A9403748094805039051A7F4F
:100ACE0080120F307BFF7A0C79D6120E967FF47E51
:100ADE0001120E677F01120F307F80120F307BFFE5
:100AEE007A0C79E5120E967FF47E01120E677F0165
:100AFE00120F30020A3AE51A6403703C7FF47E014D
:100B0E00120E677F80120F307BFF7A0C79F2120E75
:100B1E00967F0A7E00120E677FC0120F307BFF7A1F
:100B2E000D7900120E967F307E75120E677F0112C0
:080B3E000F30751A00020A3A9B
:100B4600D007D006D005D004D003D002D001D00003
:0B0B5600D0D0D082D083D0F0D0E032AD
:100B610075A881C288120F1C7B2D7D807FA0120E7B
:100B7100377D807FA0120DF28F097F01120F307F28
:100B8100147E00120E677F80120F307BFF7A0D7981
:100B910010120E967F967E00120E677F0C120F3098
:100BA1007F967E00120E67120D8EAC06AD07E41221
:100BB10008A57BCD7ACC790478411208031208DEAE
:100BC1008F087FC5120F30AF087E00120D217FDF25
:100BD100120F427BFF7A0D791F120E967F0C120FB6
:100BE10030E508D39509E4FF5005120FA7800312E1
:100BF1000FAD7FF47E01120E677F01120FA77F01F7
:0D0C0100120FAD7FF47E01120E67020B7220
:100E6700D3EF9400EE940040257D32EDD3940074C7
:100E770080948040031D80F37D30EDD3940074800F
:0E0E8700948040031D80F3EF1F70D51E80D2B3
:010E9500223A
:100F30008F80C2A0C2A1D2A27F027E00120E67C221
:020F4000A222EB
:100F1C007F02120F307F38120F307F0E120F307F8E
:040F2C0001020F307F
:100F42008F80D2A0C2A1D2A27F027E00120E67C2FF
:020F5200A222D9
:100F54008F80D2A0C2A1D2A27F027E00120E67C2ED
:020F6400A222C7
:100E96008B1B8A1C891DAB1BAA1CA91D12095FFF8F
:100EA600FD3395E04D6010120F427401251DF51DAE
:080EB600E4351CF51C80DF226D
:040D21008E0A8F0B9C
:100D2500E4F516C3E50A6480948050107F2D120FF8
:100D350042C3E4950BF50BE4950AF50AAE0AAF0B31
:100D45007C007D0A120978ED2430FF740C2516F815
:100D5500A6070516AE0AAF0B7C007D0A1209788E30
:100D65000A8F0BE50B450A70D3AF16EF3395E0FEFE
:100D7500D3EF9400EE64809480400D740B2FF8E659
:080D8500FF120F42151680E178
:010D8D002243
:060FA700EF24FF92A322DB
:060FAD00EF24FF92A422D4
:030FB800A2B222C0
:100F770007080941040506460102034B00003D50DE
:100F6600C290C291C292C293D294D295D296D2978F
:010F76002258
:100C0E00120F66A29582948296829740F6C290D277
:100C1E0091D292D293A2958294829682974004E4C6
:100C2E00FD8040D290C291D292D293A295829482AC
:100C3E0096829740047D01802AD290D291C292D2A0
:100C4E0093A29582948296829740047D028014D25C
:100C5E0090D291D292C293A295829482968297401C
:100C6E00027D03209404E4FE80132095047E01800F
:100C7E000C2096047E0280052097027E03ED25E06F
:100C8E0025E02477F582E4340FF583E5822EF58294
:080C9E00E43583F583E493FFC4
:010CA600222B
:0B0F9300D2B6D2B7D2B6D2B7C2B72296
:090F9E00C2B6C2B7D2B6D2B72226
:100EE5007E07EE3395E0C3648094804014C2B6A8B3
:100EF50006EF088002C313D8FC1392B7D2B61E8042
:010F0500E10A
:010F060022C8
:100F0700C2B6D2B7D2B60000000020B704C2B6C33B
:050F170022C2B6D32246
:100EBE00E4FF7E07EE3395E0C3648094804017C252
:100ECE00B6D2B630B70DA8067401088002C333D867
:060EDE00FC42071E80DE4D
:010EE40022EB
:050FB300D2B6D2B72206
:060E37008F1B8D1C8B1DBA
:100E3D00120F93AF1B120EE5120F0792012001172F
:100E4D00AF1C120EE5120F07920120010AAF1D1201
:0A0E5D000EE5120F079201020F9E2E
:040DF2008F1B8D1CAA
:100DF600E4F51D120F93AF1B120EE5120F079201B9
:100E0600200128AF1C120EE5120F07920120011BCC
:100E1600120F93E51B4401FF120EE5120F07920114
:100E2600200108120EBE8F1D120FB3120F9EAF1DAA
:010E36002299
:100D8E00E4FDFCC2B4C2B0D2B1D2B0C2B0D2B1D2C4
:100D9E00B0C2B0D2B1D2B0C2B0C2B1D2B0C2B0C283
:100DAE00B1D2B0C2B0D2B1D2B0C2B0D2B1D2B07B99
:100DBE000BEB3395E0C3648094804021C2B030B316
:100DCE00177E007401A803088005C333CE33CED836
:100DDE00F9FFEE4204EF4205D2B01B80D4D2B4AE7E
:030DEE0004AF054A
:010DF10022DF
:10080000020954EC5D046005E85904700302094ACA
:10081000120915580460F6EC4860F2EC7004FDFE15
:10082000FF22C860DB2481C85009C39860025006CB
:100830000209519850CAF582E9294B4A7005AB82EA
:1008400002094075F0007C1A7880C3EF9BEE9AEDA8
:1008500099400DC3EF9BFFEE9AFEED99FDE842F043
:10086000DC23ACF0D0E0FFD0E0FED0E0FDAB822096
:10087000E7101BEB60BAEC2CFCEF33FFEE33FEED20
:1008800033FD02092CE803F830E705C0F075F000ED
:10089000EF2FFFEE33FEED33FD40B830E7C280AA04
:1008A00075F020800E75F010800575F0087D007ED3
:1008B000007F003392D530D5031209AEEC334010DF
:1008C000EF33FFEE33FEED33FDEC33FCD5F0ED22DC
:0E08D000E5F0247EA2D513CC92E7CDCEFF2218
:1008DE00EDD2E7CD33EC3392D524814006E4FFFE12
:1008EE00FDFC22FCE4CFCECDCC24E0501174FF8071
:1008FE00EDC3CC13CCCD13CDCE13CECF13CF04700E
:07090E00F030D5DE0209AE56
:10091500E9D2E7C933E833F892D5EDD2E7CD33EC28
:0709250033FC5002B2D522A1
:10092C00EC30E7100FBF000C0EBE00080DBD00042C
:10093C000BEB6014A2D5EB13FCED92E7FD2274FFD8
:10094C00FCFDFEFF22E480F8A2D574FF13FC7D8031
:03095C00E480EF45
:10095F00BB010689828A83E0225002E722BBFE0296
:09096F00E32289828A83E49322C9
:10097800C2D5EC30E709B2D5E4C39DFDE49CFCEE9A
:1009880030E715B2D5E4C39FFFE49EFE1209BCC34D
:10099800E49DFDE49CFC80031209BC30D507C3E448
:0609A8009FFFE49EFE2209
:0E09AE00C3E49FFFE49EFEE49DFDE49CFC225A
:1009BC00BC000BBE0029EF8DF084FFADF022E4CC1F
:1009CC00F875F008EF2FFFEE33FEEC33FCEE9DECE8
:1009DC00984005FCEE9DFE0FD5F0E9E4CEFD22ED2E
:1009EC00F8F5F0EE8420D21CFEADF075F008EF2F78
:1009FC00FFED33FD4007985006D5F0F222C398FD69
:050A0C000FD5F0EA2205
:00000001FF
